:10000000F4EF0CF00400120004EF10F04CEC0DF0D3
:10001000FF0000F000F012000CEF10F018EF00F0FD
:10003000000EF26E000EFC6E8AEC0DF00400DAEC9D
:1000400007F0D7EC0CF09DEC0DF05FEC04F0F6D768
:1008000000B9080708640834034D006900630072EA
:10081000006F0063006800690070002000540065EC
:1008200000630068006E006F006C006F0067007965
:1008300000200049006E0063002E0009022900011B
:1008400001008032090400000203000000092111A8
:10085000010001221D000705810340000107050179
:1008600003400001260348004900440020005500D1
:1008700053004200200042006F006F0074006C00C3
:100880006F0061006400650072000600FF0901A1AD
:100890000119012940150026FF00750895408100C7
:1008A000190129409100C01201000200000008D87F
:1008B000043C0001010102000104030904003A5054
:1008C000060AD8B46DB276D22F6656D204010CBF98
:1008D00071D20001000E4B6E0001600E4A6E400E98
:1008E0004C6ECDEC0AF0010E2F6E000E246E0DD072
:1008F0002450010D0001A10EF324D96E0001000E59
:10090000F420DA6E000EDF6E242A3F0E2464F0D746
:1009100051D2040110BF4ED2020E0001A16F3A0E57
:100920000001A26F010E0001A36F010E0001A46F70
:10093000000E0001A56F200E0001A66F000E000141
:10094000A76F000E0001A86F000E0001A96F600ED6
:100950000001AA6F000E0001AB6F000E0001AC6F2A
:10096000030E0001AD6F000E0001AE6F000E00011E
:10097000AF6F300E0001B06F000E0001B16F0E0EB0
:100980000001B26F000E0001B36F000E0001B46FE2
:10099000000E0001B56F040E0001B66F000E0001DD
:1009A000B76F000E0001B86F200E0001B96F000E86
:1009B0000001BA6F080E0001BB6F000E0001BC6F92
:1009C000000E0001BD6F000E0001BE6F0001BF6987
:1009D000020E0001BF6F000E0001C06F000E00018B
:1009E000C16FF00E0001C26F000E0001C36F000E58
:1009F0000001C46F010E0001C56F000E0001C66F3B
:100A0000000E0001C76F0001C869A50E0001DA6F72
:100A10000001000E4B6E0001A10E4A6E400E4C6E9E
:100A200010EC0BF0A6D1010E316E00016167A1D16F
:100A3000000E316E9ED1000E216E800E206E000ED3
:100A4000205C020E2158D8B01ED002EC00F0000E3F
:100A5000F86E20C053F021C054F0D8905432533275
:100A6000D890543253325350F76E2040E842C00BB6
:100A7000F66E940EA66EB50E0BEC0DF0DAEC07F0E8
:100A8000204A212ADCD7000E246E24C0A9FFA868C2
:100A9000040EA66EDAEC07F0B50E0BEC0DF0243E5A
:100AA000F4D7200EF86E000EF76E000EF66E940E60
:100AB000A66EB50E0BEC0DF05CD100016351300A4F
:100AC000D8A405D0316655D14CEC0BF052D10001C1
:100AD0006351F00AD8A403D0B8EC0BF04AD1012836
:100AE000D8B40228D8B40328D8B40428D8A408D08D
:100AF00061C001F062C002F063C003F064C004F0A2
:100B00000450000164190BE103500001631907E16F
:100B100002500001621903E1015000016119D8A4DB
:100B200028D1000E246E34D000016551536E546AF2
:100B3000531E541E534A542A2450556E566A53501D
:100B4000552654505622400E5526000E56220001BE
:100B5000600E5524D96E0001000E5620DA6E30501A
:100B6000010D0101000EF324E16E0101010EF420DC
:100B7000E26EDFCFE7FF302A010E0126000E0222CF
:100B8000032204223050200AD8B45CEC07F0242A57
:100B900000016551245CD8A0C7D7EBD05CEC07F00E
:100BA0000168026803680468E4D0070E0001A16FC1
:100BB00061C0A2F062C0A3F063C0A4F064C0A5F05D
:100BC00065C0A6F0200E0B6E000162C00AF00001A5
:100BD00061C009F0000E246E55D000016351F00A87
:100BE000D8A425D0000161512424A96E000EA66E60
:100BF000A68000016551536E546A531E541E534A19
:100C0000542A2450556E566A535055265450562235
:100C1000400E5526000E56220001A10E5524D96E15
:100C20000001000E5620DA6EA8CFDFFF2AD009C0DF
:100C3000F6FF0AC0F7FF0BC0F8FF00016551536EC5
:100C4000546A531E541E534A542A2450556E566AF1
:100C50005350552654505622400E5526000E56220B
:100C60000001A10E5524D96E0001000E5620DA6E47
:100C70000800F5CFDFFF010E0926000E0A22000E44
:100C80000B22242A00016551245CD8A0A6D70401B8
:100C900010BF90D00001000E4B6E0001A10E4A6EF5
:100CA000400E4C6E10EC0BF064D0DBEC06F061D023
:100CB0000C0E0001A16F010E0001A36F020E0001D6
:100CC000A26F160EF66E200EF76E09000001F5CF2A
:100CD000A4F00A000001F5CFA5F0060E0001A66FF2
:100CE000200E0001A76F000E0001A86F000E00018A
:100CF000A96F600E0001AB6F0D0E0001AA6F400ED0
:100D00000001AC6F000E0001AD6F000E0001AE6F70
:100D1000000E0001AF6F0001B0690001B169000170
:100D2000B2690001B369000E0001B46F0001B5693A
:100D30000001B669000E0001B76F0001B86900013B
:100D4000B9690001BA690001BB690001BC69000111
:100D5000BD69040110BF2ED00001000E4B6E0001D2
:100D6000A10E4A6E400E4C6E10EC0BF002D006EC59
:100D700000F0000E2F6E1ED000016051020AD8B4A0
:100D8000C8D5010AD8B44FD6070AD8B454D6010A38
:100D9000D8B493D6030AD8B401D7010AD8B405D77A
:100DA0000F0AD8B4E4D7010AD8B47FD7050AD8B45B
:100DB0007FD7DFD71200000E0E6E200E0D6E000ED4
:100DC0000C6E000E256E1AD00CC0F6FF0DC0F7FF9A
:100DD0000EC0F8FF2550010D0101000EF324D96E5D
:100DE0000101010EF420DA6E0800F5CFDFFF010EDD
:100DF0000C26000E0D22000E0E22252A3F0E256421
:100E0000E3D70D0E0101066F600E0101076F000EA2
:100E1000F86E200EF76E000EF66E940EA66EB50EEE
:100E20000BEC0DF0000E0E6E200E0D6E3F0E0C6ED4
:100E30003F0E256E0C504B6E0D504C6E0E504D6E8D
:100E40004E6A110E05D0D8904E324D324C324B3294
:100E5000E82EF9D74B50F86E0DC04BF04BC04CF05C
:100E60004D6A4C50F76E0CC0F6FF2550010D010184
:100E7000000EF324D96E0101010EF420DA6EDF506A
:100E8000F56E0C0025C04BF01F0E4B16D8A407D0F2
:100E900002EC00F0A40EA66EB50E0BEC0DF0010EE8
:100EA0000C5E000E0D5A000E0E5A0A00256601D087
:100EB00002D02506BFD7120030C04BF04C6A4D6AF5
:100EC0004E6A4B1E4C1E4D1E4E1E4B2A000E4C22CF
:100ED0004D224E2201504B244F6E02504C20506E3A
:100EE00003504D20516E04504E20526E4F500F6EE5
:100EF00050C010F051C011F0000EF86E10C04BF051
:100F00004BC04CF04D6A4C50F76E0FC0F6FF000E10
:100F10002C6EF6501F0B2D6EE00EF616000E2E6E88
:100F20001CD02D6616D03050D8B410D02C50010DE6
:100F30000101000EF324D96E0101010EF420DA6ED6
:100F4000DF50F56E0D002C2A300606D0F5680D0036
:100F500003D0F5680D002D062E2A1F0E2E64E1D752
:100F60000A00A40EA66EB50E0BEC0DF0000E2E6E50
:100F70001CD02E502CC04BF04C6A4B26000E4C223D
:100F80000101000E4B24D96E0101010E4C20DA6ED6
:100F90002E50010D0101000EF324E16E0101010E3E
:100FA000F420E26EDFCFE7FF2E2A30502E5CD8B05F
:100FB0001200DFD791EC0DF03A6601D06DD068B425
:100FC00062EC0DF06DB268D068B086EC0BF068B8DA
:100FD00033EC0DF0030E3A5CD8A05ED0000E356EF7
:100FE00058D068A659D06CCF34F06CCF4EF07C0E40
:100FF0004E16D8A444D06CB206D00401040E1D6E67
:101000000401000E05D00401040E1D6E0401040E3F
:101010001C6E68961CC0D9FF1DC0DAFFDF30E832B5
:101020000F0B0D0AD8A434D0000E276E22D020EE6C
:1010300002F01C50D9261D50DA22DECF4EF0DDCF53
:101040004FF04EC0D9FF4FC0DAFF2750010D3C0EC4
:10105000F324E16E000EF420E26EDFCFE7FF20EE16
:1010600002F01C50D9261D50DA22DE2A000EDD22A5
:10107000272A070E2764DBD76FEC0CF009D06C50E1
:10108000040AD8A404D0689694EC0CF001D06896B9
:10109000352A030E3564A5D712003C501F0B4A6E4B
:1010A0004A04D8A467D04050D8A464D03D50060A62
:1010B000D8B41CD024D0020E366E080E166E4D0E1B
:1010C000156E000E456E090E0FD0020E366E4804E6
:1010D000D8A404D0080E166E8A0E156E4804D8A443
:1010E0000DD0000E456E1D0E446E08D03F50210AF3
:1010F000D8B4E1D7030AD8B4E8D7010A3B823C3818
:10110000E832030B4A6E4A04D8A434D020D09CECB9
:101110000DF030D09BEC0DF02DD0020E366E000E8F
:10112000166E470E0AD0020E366E3FC047F022D030
:10113000020E366E000E166E460E156E3B92010EB6
:10114000446E18D0020E366E3EC046F013D03D50AD
:10115000010AD8B4DCD7030AD8B4DFD7010AD8B45F
:10116000E7D70A0AD8B4D6D7030AD8B4DCD7010A1D
:10117000D8B4E8D712003E04D8A40ED03C501F0BC0
:101180000009D8A409D0010E366E3D50030AD8A438
:1011900002D03B8001D03B903E664AD03C501F0BB2
:1011A000020AD8A445D040500F0B0009D8B440D053
:1011B000010E366E40500F0B4A6E4A50080D000E5D
:1011C0004B6E040E4C6EF3504B26F4504C2240AE46
:1011D00003D04D6A4D2A01D04D6A4D50040DF35095
:1011E0004B26F4504C22040E4B24126E000E4C2061
:1011F000136E3D50030AD8A406D012C0D9FF13C005
:10120000DAFF040E0ED040AE07D012C0D9FF13C0D3
:10121000DAFF400EDF6E0CD012C0D9FF13C0DAFF28
:10122000080EDF6E12C0D9FF13C0DAFF000EDB8E8E
:101230001200366615D0040E0401086F0401088FF1
:10124000040E056E3304D8A405D0010E44EC0CF056
:10125000000E04D0000E44EC0CF0010E336E44D0AE
:101260003CAE1FD0010E376E4450425C455043588F
:10127000D8B004D042C044F043C045F075EC09F04A
:10128000480E056E010E44EC0CF0000E44EC0CF020
:101290000401040E04010B6F0401240E04010A6F03
:1012A0001ED0020E376E040E056E43504210D8A4B5
:1012B00002D0480E056E3304D8A405D0010E44ECCC
:1012C0000CF0000E04D0000E44EC0CF0010E336E56
:1012D00043504210D8A408D0000E0401096F480EF4
:1012E0000401086F0401088F1200080E266E080E14
:1012F000445C000E4558D8B00BD044C026F0396687
:1013000002D0010E04D03904D8A402D0020E396EE6
:1013100026C009F42650445E000E455A0401040E0E
:10132000136E0401240E126E3BB21BD037D015C0D1
:10133000F6FF16C0F7FFF86A12C0D9FF13C0DAFF34
:10134000070EF76403D00800F55005D0F6CFE1FF93
:10135000F7CFE2FFE750DF6E124A132A154A162A2A
:1013600026062666E4D71CD015C0F6FF16C0F7FF88
:10137000F86A12C0D9FF13C0DAFF070EF76403D072
:101380000800F55005D0F6CFE1FFF7CFE2FFE750B8
:10139000DF6E124A132A154A162A26062666E4D755
:1013A00012003C38E832030B0009D8A454D033D0E3
:1013B000010E366E040E3A6E4ED082EC0AF04BD01F
:1013C00017EC0CF048D0010E366E000E166E480E6B
:1013D000156E10D02CEC0AF03ED0BBEC08F03BD0E0
:1013E000010E366E4050010D490EF324156E000EAD
:1013F000F420166E3B92010E446E2DD0010E366E17
:101400004050010D490EF324D96E000EF420DA6E1F
:101410003EC0DFFF20D03D50000AD8B4DBD7010A20
:10142000D8B4DBD7020AD8B4D8D7060AD8B4C0D704
:10143000030AD8B4C2D7010AD8B40DD00F0AD8B461
:10144000C2D7010AD8B4BCD7030AD8B4C9D7010A95
:10145000D8B4D4D7070A1200000E0401246F000E7E
:101460000401256F37D0010E366E3BA03ED004013B
:1014700024833BD0010E366E38D0010E366E4050BC
:101480000F0B4A6E4A50080D000E4B6E040E4C6E48
:10149000F3504B26F4504C2240AE03D04D6A4D2AF7
:1014A00001D04D6A4D50040DF3504B26F4504C22A0
:1014B000040E4B24126E000E4C20136E12C0D9FF86
:1014C00013C0DAFFDF504A6E4AA40FD0010E0401A8
:1014D000246F0BD03C501F0B000AD8B4C4D7010AAC
:1014E000D8B4C8D7030AD8B4C8D73604D8A409D00A
:1014F0000401040E166E0401240E156E3B92020EBA
:10150000446E12003C50800AD8B43BD045D0010E46
:10151000366E080E166EA70E156E120E0BD03E66B6
:101520003AD0010E366E080E166E3B0E156E000E8A
:10153000456E290E446E2FD0010E366E3E50020DC0
:10154000010EF324F66E080EF420F76E0900F5CFB5
:1015500015F00A00F5CF16F015C0F6FF16C0F7FF1C
:10156000F86A070EF76403D00800F55005D0F6CFEF
:10157000E1FFF7CFE2FFE7504A6E4A50446E456AFA
:101580000AD03F50010AD8B4C2D7030AD8B4C7D78B
:10159000010AD8B4D1D73B821200000E386E040184
:1015A0000CBF3DD04C5004010D5DD8A00DC44CF0D3
:1015B000000E386E15D03850010D04012C0EF324A6
:1015C000D96E0401040EF420DA6E3850010DF35088
:1015D0004A24E16EF4504B20E26EDFCFE7FF382A59
:1015E0004C50385CD8A0E7D7400E04010D6F400E78
:1015F00004010C1704010CBD02D0010E01D0000E35
:101600004D6E4D3A4D464D4604010C514D18BF0BE1
:101610004D1804010C6F04010C8704010C8F12009B
:10162000400E4C6402D0400E4C6E000E4E6E15D033
:101630004E50010DF3504A24D96EF4504B20DA6E0F
:101640004E50010D04016C0EF324E16E0401040EF2
:10165000F420E26EDFCFE7FF4E2A4C504E5CD8A05C
:10166000E7D74CC011F4400E04011017040110BD5F
:1016700002D0010E01D0000E4D6E4D3A4D464D4642
:10168000040110514D18BF0B4D180401106F0401D7
:1016900010870401108F1200300EF86E000162C036
:1016A0004BF04BC04CF04D6A4C50F76E61C0F7FFE9
:1016B000000E2A6E25D0000165514B6E4C6A4B1E00
:1016C0004C1E4B4A4C2A2A504D6E4E6A4B504D26AA
:1016D0004C504E22400E4D26000E4E220001600E50
:1016E0004D24D96E0001000E4E20DA6EDF50F56EEB
:1016F0000C00C40EA66EB50E0BEC0DF009002A2AE4
:10170000000165512A5CD8B01200D5D7030E3A6E9D
:10171000000E6B6E000E686E7B0E696E000E6E6EB4
:10172000000E716E000E726E000E736E000E746EFF
:10173000000E756E000E766E000E776E160E706ED1
:101740006D8C03D0689602EC00F068B6FBD76D9CF8
:101750006D98040E056E000E44EC0CF0010E336E15
:10176000000E3B6E000E486E000E6BEC0DF012008A
:10177000000E2B6E27D0000161512B24A96E0001B1
:1017800065514B6E4C6A4B1E4C1E4B4A4C2A2B50DB
:101790004D6E4E6A4B504D264C504E22400E4D26FB
:1017A000000E4E220001600E4D24D96E0001000E85
:1017B0004E20DA6EDF50A86E040EA66EB50E0BEC4E
:1017C0000DF02B2A000165512B5CD8B01200D3D745
:1017D0000F0EC16E938881A803D0070EC16E02D090
:1017E00018EC00F0060EF66E200EF76E0900F5CF2D
:1017F00057F00900F5CF58F05850600A0D0ED8B4D4
:101800005718D8A410D0000EF66E200EF76E0900FF
:10181000F5CF57F00900F5CF58F05728D8B458281D
:10182000D8A400EF10F018EC00F000EF00F0010E6B
:10183000366E000E716E000E726E000E736E000E2C
:10184000746E000E756E000E766E000E776E000ED2
:10185000286E2850D8A40CD02850010D490EF3242E
:10186000D96E000EF420DA6E000EDF6E282AF1D752
:101870003EC048F048506BEC0DF03E6602D0050EBD
:1018800001D0060E3A6E12004A6E080E066E040172
:10189000040E086E04011C0E076E4A660AD004018D
:1018A000040E086E0401140E076E040E1B6E000E6B
:1018B00003D0040E1B6E040E1A6E1AC0D9FF1BC093
:1018C000DAFF05C0DEFF06C0DEFF07C0DEFF08C08E
:1018D000DEFF1AC0D9FF1BC0DAFFDF8E1200000E38
:1018E0000401086F000E396E040100AF05D0000E30
:1018F0000401006F000E336E040104AF05D0000E2A
:101900000401046F010E336E000E376E000E366E4A
:10191000000E456E000E446E6D98D1EC09F098EC07
:101920000DF019EC09F012003A50040AD8A409D0BD
:101930003EC06EFF6E50D8B402D0050E01D0030E2B
:101940003A6E3704D8A412D075EC09F03950020A67
:10195000D8A402D0040E06D0040108BD02D0480E5F
:1019600001D0080E0401086F0401088F1200000E58
:10197000386E1E0E716E400E04010D6F0401040ED0
:1019800004010F6F04012C0E04010E6F080E0401F8
:101990000C6F04010C8F0401040E0401136F040189
:1019A0006C0E0401126F400E0401106F1200180635
:1019B000D8A0190619501810D8A415D04E0E196EBB
:1019C000000E186E060E3A5CD8B002D08C800BD098
:1019D0008CB002D0010E01D0000E4A6E8C504A1815
:1019E000FE0B4A188C6E120001EE00F0400EEE6AFB
:1019F000E806FDE100EE60F0820EEE6AE806FDE129
:101A000000EE01F0490EEE6AE806FDE1000EF86E08
:101A10000001E8EF0BF04A6EF29E9DEC0DF04A508B
:101A2000B50AD8B405D0030ED36E0300FED7FF006D
:101A3000550EA76EAA0EA76EA682A6B2FED7A694D2
:101A400012003204D8B44CEC0DF0000E6D6E150E81
:101A50006F6E000E696E6D8686EC0BF0010E3A6EAD
:101A6000000E326E120069CF29F0040E696E68987C
:101A70006D82A19AA08A83EC0DF0A09A2950691278
:101A80001200000E2F6E0168026803680468000EE1
:101A9000306E010E316E12006D92000E6D6EFF0EF3
:101AA0004B6E4A6857EC0DF0000E3A6E120005D0EE
:101AB00002EC00F04A06D8A04B064B504A10D8B4AE
:101AC0001200F6D77CEC0DF06D92699401D0689409
:101AD00068A41200FCD74A6E4A04D8A404D0B7EC1C
:101AE0000CF041EC0DF012006DB64CEC0DF0000E58
:101AF000326E91EC0DF01200030E4B6E000E4A6E2A
:101B000057EC0DF012008C900300A1BA02D0D0A6C1
:101B1000FBD7120041EC0DF08C90959074EC0DF019
:101B200012003204D8A46DB602D021EC0DF01200E0
:0C1B30004DEC08F0120012001200120030
:022006000D606B
:020000040020DA
:08000000FFFFFFFFFFFFFFFF00
:020000040030CA
:0E000000240E3F1EFF8181FF0FC00FE00F4056
:00000001FF
