:020000040000FA
:0420000007EF10F0E6
:0D2008005F8299ED37F046EF38F020E803D5
:10201800000102030405060708092A002B202020D6
:102028002020202020202020202020006D572F63F2
:052038006D002E000008
:106E0100FFFF040AFF010100018751D8B412008776
:106E1100071200020E1EEC37F085EC37F01200026B
:106E21006E84848492025041EC37F01200036E03A9
:106E31005010EC37F085EC37F01200026E84948428
:106E410092025041EC37F012005D505E10D8B4123E
:106E5100005D06D8A05E061200036E038E03501E6D
:106E6100EC37F085EC37F01200D59ED58CD59AD54C
:106E710096D580D582D584D10ED66ED768F28A1286
:106E810000016E0F0E8C1684800150F00B8C128461
:106E9100900F0E8C1684800138F00B8C12849012A6
:106EA10000CD90CD92CD84CD96CD8ACD88CD9ECD8D
:106EB1009C780ECE6EC40ECF6E9E909D80F28C1289
:106EC10000AFEC37F035EC37F051EC37F0D58ECD23
:106ED10080D58EF28EFBEC38F0B0EC39F0DAEC3D77
:106EE100F0FDD706500802F3CF0AF0F4CF0BF006FD
:106EF100500902F3500B2607500802F3500B260AE3
:106F0100C006F00BC007F01200F00E9512849484B5
:106F1100828480000E83BE010E016E849084808382
:106F21005084900150D8A4F4D784920F0E95161274
:106F3100000600F2A406D0D10ED66E04EC37F0257F
:106F4100EC37F09EA007D0780ECE6EC40ECF6E59EE
:106F510050D8A459069E90F2945F921100000E89B8
:106F61006E000E8A6E000E8B6E000E8C6E000E8D02
:106F71006E9268936894680C0E956E000E966E077B
:106F81000EB46E0F0EC16E12000CD003C0F6FF04DA
:106F9100C0F7FF0800F55010EC37F085EC37F0032F
:106FA1004A042A03C0F6FF04C0F7FF0800F55000A9
:106FB10009D8B41200EAD780CF05F092CF06F0923B
:106FC1008092860B0EC16EC188AD0EC06EC280C2AA
:106FD10082C2B2FED7C2900F0EC16E05C089FF06F4
:106FE100C092FFC450046E036AC3500324016E00B3
:106FF1000E0420026E120003500410D8B418D00100
:107001000E056E04D0D89003360436052A04AEFA74
:10701100D70350015C04500258D8A004D00350019A
:107021005E0450025AD89004320332052EF1D70182
:10703100C001F002C002F01200000E116E000E102D
:107041006E0E500F10D8B41CD0010E126E04D0D8A1
:10705100900E360F36122A0FAEFAD7D8901036118D
:10706100360E500C5C0F500D58D8A005D00E500CA8
:107071005E0F500D5A1080D8900F320E32122EED45
:10708100D710C00CF011C00DF01200010EF66E6E9B
:107091000EF76E000EF86E00EE89F010EE07F009A3
:1070A10000F5CFEEFFE550E150FAE1120EF66E2049
:1070B1000EF76E000EF86E0900F5CF5AF00900F5D3
:1070C100CF5BF00900F5CF5CF000EE7AF00F0EEE29
:1070D1006AE806FDE100EE4FF00B0EEE6AE806FDF0
:1070E100E15F905F92000EF86E000161EF37F000F2
:1070F1000E096E000E0A6E000E0B6E000E0C6E0570
:1071010050061007100810D8B42AD0010E0D6E06D3
:10711100D0D89005360636073608360D2A08AEF85F
:10712100D7D89009360A360B360C360550015C0665
:107131005002580750035808500458D8A009D005E8
:1071410050015E0650025A0750035A0850045A096A
:1071510080D89008320732063205320D2EE1D70968
:10716100C001F00AC002F00BC003F00CC004F01221
:1071710000066E5950D8A40BD0400E2DEC37F025E7
:107181000E036E200E046EC5EC37F03C0E596E40B6
:107191000E2DEC37F004D0010E17EC37F006060681
:1071A10050D8A4F9D70550D8B407D0030E05600410
:1071B100D0050E17EC37F01200020E056407D0055A
:1071C1000E056004D0040E17EC37F01200040E0512
:1071D1006407D0070E056004D0030E17EC37F012D8
:1071E10000060E05641200090E05601200020E175A
:1071F100EC37F012000F0E95169694969296900029
:107201000E5E6E1E0E5D6E5D505E10D8A4FCD70240
:107211000E1EEC37F0000E5E6E010E5D6E5D505E6F
:1072210010D8A4FCD7280E1EEC37F0000E5E6E01BC
:107231000E5D6E5D505E10D8A4FCD70C0E1EEC37AF
:10724100F0000E5E6E010E5D6E5D505E10D8A4FC06
:10725100D7010E1EEC37F0000E5E6E010E5D6E5D05
:10726100505E10D8A4FCD7060E1EEC37F0000E5E5F
:107271006E010E5D6E5D505E10D8A4FCD785EC37B3
:10728100F01200433444344A6E4A50D8A409D00065
:107291000E416E000E426E000E436E000E446E12E1
:1072A1000041C045F042C046F043C047F044C048E9
:1072B100F0200E05D0D8904832473246324532E8A8
:1072C1002EF9D74550496E438EFF0E4116FF0E42EF
:1072D10016FF0E4316000E4416960E4A5E4AAE166F
:1072E100D04A50800A970FD8B009D0000E416E00E5
:1072F1000E426E000E436E000E446E1200D8904492
:10730100324332423241324A3EF9D715D01F0E4A3A
:10731100640FD0000E416E000E426E000E436E00EF
:107321000E446E1200D89041364236433644364AF6
:10733100064A50D8A4F7D74950D8B408D0441E43C0
:107341001E421E416C000E42224322442241C04192
:10735100F042C042F043C043F044C044F012000088
:107361000E056E000E046E400E1EEC37F085EC37F4
:10737100F00C0E17EC37F0040E17EC37F0080E176F
:10738100EC37F00C0E17EC37F0000E17EC37F0006D
:107391000E17EC37F0000E17EC37F0000E17EC3734
:1073A100F00CD01F0E17EC37F0052A080E0518D87F
:1073B100A404D0010E046E000E056E080E056010C7
:1073C100D00450D8A40DD0EDD71E0E17EC37F00520
:1073D1002A080E0518D8A404D0020E046E000E056A
:1073E1006E080E056010D00404D8A40DD0EDD71C92
:1073F1000E17EC37F0052A080E0518D8A404D0039F
:107401000E046E000E056E080E056011D0020E040A
:1074110018D8A40DD0ECD7180E17EC37F0052A08B0
:107421000E0518D8A404D0040E046E000E056E08D3
:107431000E056011D0030E0418D8A40DD0ECD7109E
:107441000E17EC37F0052A080E0518D8A404D00150
:107451000E046E000E056E080E056004D0040E04C5
:1074610018D8B4EDD70AEC37F01200096E0950D8DC
:10747100A404AE1AD001C005F002C006F003C00793
:10748100F004C008F0051E061E071E081E052A008E
:107491000E06220722082205C00BF006C00CF007D9
:1074A100C00DF008C00EF008D001C00BF002C00CF6
:1074B100F003C00DF004C00EF001500210031004DF
:1074C10010D8A409D0000E016E000E026E000E034A
:1074D1006E000E046E1200960E0A6E06D00A2AD8AD
:1074E100900E320D320C320B32000E0B14056E0071
:1074F1000E0C14066E000E0D14076EFE0E0E14080F
:107501006E0550061007100810D8B40DD0E7D70A41
:107511002A010E0B26000E0C220D220E22D8900EEF
:10752100320D320C320B32000E0B14056E000E0CB4
:1075310014066E000E0D14076EFF0E0E14086E0574
:1075410050061007100810D8B407D0E1D70A06D8A2
:10755100900B360C360D360E360DBE03D0020E0AD8
:1075610060F5D70AA00D9ED8900A320AC005F00630
:107571006A076A086A05C008F0076A066A056A05AB
:10758100500B1206500C1207500D1208500E120922
:1075910050D8A404AE01D00E8E0BC001F00CC00275
:1075A100F00DC003F00EC004F012002B50800B3818
:1075B1006E2B502B243F6E2ABE3F803F50D8B40D16
:1075C100D03F28D8A408D0000E286E000E296E00E6
:1075D1000E2A6E000E2B6E2A8E06D0000E286E002B
:1075E1000E296E000E2A6E000E2B6E2F50800B3866
:1075F1001A2F502F24406E2EBE40804050D8B40D1B
:10760100D04028D8A408D0000E2C6E000E2D6E009C
:107611000E2E6E000E2F6E2E8E06D0000E2C6E00DA
:107621000E2D6E000E2E6E000E2F6E2C502D102E74
:10763100102F10D8A417D0000E286E000E296E004E
:107641000E2A6E000E2B6E800E2A127F0E2B123820
:10765100502B1228C028F029C029F02AC02AF02B6B
:10766100C02BF012003F50D8A411D0000E286E009C
:107671000E296E000E2A6E000E2B6E28C028F029EE
:10768100C029F02AC02AF02BC02BF0120040503044
:107691006E316A301E311E304A312A3F50326E330C
:1076A1006A30503226315033227F0E3224396E0037
:1076B1000E33203A6E28C034F029C035F02AC03686
:1076C100F02BC037F0000E286E000E296E000E2A36
:1076D1006E000E2B6E000E3B6E000E3C6E000E3DDA
:1076E1006E000E3E6E000E406E28D04050D8B41190
:1076F100D0D8903436353636363736D890283629B4
:10770100362A362B363EBE2880D8903B363C363D55
:10771100363E362C50345C2D5035582E5036582F6D
:10772100503758D8A009D03E8C2C50345E2D50359E
:107731005A2E50365A2F50375A402A190E4064D5C6
:10774100D73450351036103710D8B411D03B800FD4
:10775100D0D890283629362A362B363EBE2880D8F6
:10776100903B363C363D363E363906D8A03A062A9D
:10777100AEEFD7000E406E3EAE16D0FF0E3B14307A
:107781006EFF0E3C14316EFF0E3D14326E7F0E3EC5
:1077910014336E3050311032103310D8A402D02877
:1077A100A002D0010E406E4050D8B41FD0010E2867
:1077B10026000E29222A222B222BA017D028C030E6
:1077C100F029C031F02AC032F02BC033F03334330A
:1077D1003232323132303230C028F031C029F03209
:1077E100C02AF033C02BF0394A3A2A3ABE10D03AB7
:1077F1005003E13928D8A00BD0000E3A6E39680049
:107801000E286E000E296E000E2A6E000E2B6E3AA7
:10781100BE05D03A5011E13904D8B00ED0000E3A6D
:107821006E000E396E000E286E000E296E000E2AB3
:107831006E000E2B6E000E386E39C03FF03FA00275
:10784100D02A8E01D02A9ED8903F302B6E38502BF3
:107851001228C028F029C029F02AC02AF02BC02BF9
:10786100F012001250800B1B6E12501224216E1167
:10787100BE21802150D8B40DD02128D8A408D00031
:107881000E0F6E000E106E000E116E000E126E11B4
:107891008E08D0000E0F6E000E106E000E116E00DD
:1078A1000E126E1650800B1B1A16501624206E15E0
:1078B100BE20802050D8B40DD02028D8A408D000F4
:1078C1000E136E000E146E000E156E000E166E1560
:1078D1008E08D0000E136E000E146E000E156E0091
:1078E1000E166E2050D8B403D02150D8A409D00070
:1078F1000E0F6E000E106E000E116E000E126E1243
:107901000015500F02F3CF26F0F4CF27F026501CBC
:107911006E1D6A1E6A1F6A2750226E236A246A2519
:107921006A14501002F3CF26F0F4CF27F026501C32
:1079310026000E1D221E221F2227502226000E2362
:10794100222422252213501102F3CF26F0F4CF274F
:10795100F026501C26000E1D221E221F2227502217
:1079610026000E2322242225221EC01FF01DC01E28
:10797100F01CC01DF01C6A13501002F3CF26F0F466
:10798100CF27F026501C2627501D22000E1E220054
:107991000E1F2214500F02F3CF26F0F4CF27F0264A
:1079A100501C2627501D22000E1E22000E1F221ED3
:1079B100C01FF01DC01EF01CC01DF01C6A13500F2B
:1079C10002F3CF26F0F4CF27F026501C2627501DB6
:1079D10022000E1E22000E1F2215501002F3CF2688
:1079E100F0F4CF27F02650222627502322000E2420
:1079F10022000E252214501102F3CF26F0F4CF27D6
:107A0100F02650222627502322000E2422000E2584
:107A11002215501102F3CF26F0F4CF27F02650178C
:107A21006E2750186E196A1A6A19C01AF018C0190F
:107A3100F017C018F0176A17502226185023221980
:107A41005024221A5025221CC017F01DC018F01E08
:107A5100C019F01FC01AF0190E05D0D8901A3219AA
:107A61003218321732E82EF9D71750222618502330
:107A710022195024221A5025221EC01FF01DC01E9B
:107A8100F01CC01DF01C6A205021C017F0186A17A5
:107A910026000E1822820E1724266EFF0E182027AC
:107AA1006E0FD0D89022362336243625361FBE22BB
:107AB10080D8901C361D361E361F362606D8A027C4
:107AC1000624AEEFD7000E206E1FAE16D0FF0E1C9F
:107AD10014176EFF0E1D14186EFF0E1E14196E7F03
:107AE1000E1F141A6E1750181019101A10D8A4026C
:107AF100D022A002D0010E206E2050D8B41FD00198
:107B01000E2226000E23222422252225A017D02270
:107B1100C017F023C018F024C019F025C01AF01ABC
:107B2100341A3219321832173217C022F018C02312
:107B3100F019C024F01AC025F0264A272A27BE0DC5
:107B4100D0275003E12628D8A008D0000E226E00CD
:107B51000E236E800E246E7F0E20D027BE05D02707
:107B6100500EE12604D8B00BD0000E226E000E2379
:107B71006E000E246E000E256E000E1B6E0FD026B9
:107B8100C021F0FF0E2216FF0E23167F0E241600D1
:107B91000E251621B0248ED8902130256E1B50253C
:107BA1001222C00FF023C010F024C011F025C01222
:107BB100F01200000E0001706F000E716F000E7266
:107BC1006F000E736F000E6B6F000E636F000E621D
:107BD1006F000E696F000E6A6F090E2DEC37F034DD
:107BE1000E036E200E046EC5EC37F0040E2DEC373B
:107BF100F03A0E036E200E046EC5EC37F00E0E2D1A
:107C0100EC37F0000E17EC37F0050E0001876FDC42
:107C1100EC37F001C062F002C063F03C0E00016B72
:107C21006113D062C04BF063C04CF0000E4CBEFF3C
:107C31000E4D6E4E6E4B5070274C5071234D50724D
:107C4100234E5073236B2B29D070C001F071C002F9
:107C5100F072C003F073C004F03C0E056E000E0616
:107C61006E000E076E000E086E78EC38F001C070E1
:107C7100F002C071F003C072F004C073F0000E0096
:107C8100016B6F70C06CF071C06DF0000E706F0011
:107C91000E716F000E726F000E736F4B0E6C5D01F3
:107CA1000E6D59D8B005D0000E756F000E746F3B84
:107CB100D0000E2C6EC00E2D6E7F0E2E6E440E2F38
:107CC1006E000E136E400E146E4E0E156E450E169E
:107CD1006E6CC001F06DC002F0036A046A000E36DA
:107CE100EC3AF001C00FF002C010F003C011F00433
:107CF100C012F032EC3CF00FC028F010C029F01196
:107D0100C02AF012C02BF0D6EC3AF028C041F0297D
:107D1100C042F02AC043F02BC044F042EC39F0419C
:107D2100C074F042C075F0000174517511D8B448A7
:107D3100D0000E2C6E000E2D6EFA0E2E6E440E2FFC
:107D41006E000E136E600E146E6A0E156E460E16E0
:107D51006E180E4B6EFC0E4C6E74C04DF075C04E1D
:107D6100F04B504D264C504E224DC001F04EC002FA
:107D7100F0036A046A000E36EC3AF001C00FF0021B
:107D8100C010F003C011F004C012F032EC3CF00F4F
:107D9100C028F010C029F011C02AF012C02BF0D673
:107DA100EC3AF028C041F029C042F02AC043F02B40
:107DB100C044F042EC39F041C078F042C079F0059E
:107DC100D0000E0001796F000E786FB80E000174BB
:107DD1005D0B0E7559D8A004D03A0E796F980E78C4
:107DE1006F78C00CF079C00DF0270E0F6E100E0EDB
:107DF1006E1DEC38F00C50300F0001686F270E0437
:107E01006E100E036E78C001F079C002F0FCEC3701
:107E1100F001C00CF002C00DF0030E0F6EE80E0E63
:107E21006E1DEC38F00C50300F0001676F270E0407
:107E31006E100E036E78C001F079C002F0FCEC37D1
:107E4100F001C076F002C077F0030E046EE80E0375
:107E51006E76C001F077C002F0FCEC37F001C00C87
:107E6100F002C00DF0000E0F6E640E0E6E1DEC38A8
:107E7100F00C50300F0001666F270E046E100E03D8
:107E81006E78C001F079C002F0FCEC37F001C076E9
:107E9100F002C077F0030E046EE80E036E76C001A7
:107EA100F077C002F0FCEC37F001C06EF002C06F59
:107EB100F0000E046E640E036E6EC001F06FC0021E
:107EC100F0FCEC37F001C00CF002C00DF0000E0F19
:107ED1006E0A0E0E6E1DEC38F00C50300F0001656D
:107EE1006F270E046E100E036E78C001F079C00288
:107EF100F0FCEC37F001C076F002C077F0030E041D
:107F01006EE80E036E76C001F077C002F0FCEC372C
:107F1100F001C06EF002C06FF0000E046E640E033B
:107F21006E6EC001F06FC002F0FCEC37F001C06072
:107F3100F002C061F060C001F061C002F0000E0407
:107F41006E0A0E036EFCEC37F00150300F00016435
:107F51006F020E2DEC37F00001685117EC37F0037A
:107F61000E2DEC37F00001675117EC37F0050E2D9F
:107F7100EC37F00001665117EC37F0060E2DEC37A7
:107F8100F00001655117EC37F0070E2DEC37F000CA
:107F910001645117EC37F078C00CF079C00DF00393
:107FA1000E0F6EAA0E0E6E1DEC38F00C500001691A
:107FB1006F030E046EAA0E036E78C001F079C00241
:107FC100F0FCEC37F001C006F002C007F0000E092A
:107FD1006E0A0E086E72EC37F006C00CF007C00D89
:107FE100F0030E0F6EAA0E0E6E1DEC38F00C500051
:0F7FF100016A6F6AC005F06951B9EC38F01200EF
:020000040020DA
:08000000FFFFFFFFFFFFFFFF00
:020000040030CA
:0E000000240E3F1EFF8181FF0FC00FE00F4056
:00000001FF
