:020000040000FA
:0420000007EF10F0E6
:0A200800488283ED3BF006EF3CF048
:10201800000102030405060708092A002B202020D6
:10202800494E534F4C41444F52410041535049523D
:1020380041444F5241004C554345530050574D00C1
:082048004F6666004F6E0000B8
:10764000020E3AEC3BF0C7EC3BF01200010E3AECB4
:107650003BF0C7EC3BF012001C6E848484921C50FB
:1076600093EC3BF012001D6E1D502CEC3BF0C7EC70
:107670003BF012001C6E849484921C5093EC3BF0FF
:10768000120046504710D8B412004606D8A047064C
:1076900012001D6E1D8E1D503AEC3BF0C7EC3BF006
:0276A0001200D6
:1076A30000080C0E0C0800FFFF020A20FF0301E88C
:1076B300031B6E92941B50D8B402D08084120080B6
:1076C3009412001B6E92961B50D8B402D08086127F
:1076D300008096120093809382F19EF19CF19AF2BE
:1076E30092F090F288F0861200D59ED59CD59AD55B
:1076F30096D580D582D594FD0ED76E110ED66EF237
:107703008A12000600F2A409D0FD0ED76E110ED620
:107713006EF29441EC3BF05FEC3CF023EC3CF04820
:107723009211001B6E0F0E8C1684801B50F00B8C75
:107733001284900F0E8C1684801B38F00B8C1284ED
:1077430090120076EC3BF0D58EF28EF0EC3BF06CB1
:10775300EC3BF09DEC3DF026EC3BF05FEC3EF0D1D2
:10776300EC3EF0FBD71C6E1B50D8B405D0BE501BAB
:1077730018D8A41BC0BEFF1C50D8B41200CB501C99
:1077830018D8B412001CC0CBFF1200F00E9512845F
:107793009484828480000E83BE010E1B6E849084C9
:1077A30080835084901B50D8A4F4D784920F0E95F5
:1077B300161200226E2250C80DF3CF1BF0F4CF1C1B
:1077C300F0000E1E6E640E1D6EA0EC3CF01B5023E9
:1077D3006E23C01BF0C80EB4EC3BF01200000E8900
:1077E3006E000E8A6E000E8B6E000E8C6E000E8D78
:1077F3006E9268936894680C0E956E000E966E07F1
:107803000EB46E0F0EC16E1200A30EF66E760EF757
:107813006E000EF86E00EE35F010EE11F00900F573
:10782300CFEEFFE550E150FAE100EE01F01A0EEE63
:107833006AE806FDE148904892000EF86E0001A345
:10784300EF3BF0F2A81200F2A20CD000F0F298F095
:1078530096F0B002D0000E01D0030E426EF292F009
:10786300901200F0A0120000F0F298F096F2B2022B
:10787300D0010E01D0030E426EF292F0901200205E
:10788300503AEC3BF0C7EC3BF0000E226E000E21A9
:107893006E22BE06D0225010E1080E215CD8B01231
:1078A3000021501E24D96E22501F20DA6EDF503380
:1078B300EC3BF0214A222AECD71200030E4218D8DF
:1078C300A414D00C50D8A40C060E50D8B40ED00D6E
:1078D30050D8B40BD00C50D8A408D0020E426EF28C
:1078E30092F090F288F086140E0C6E7EEC3CF0154C
:1078F30050D8B412001506120081A005D00128D873
:10790300B404D0012A02D0000E016E0A0E016402F3
:10791300D0010E01D0000E0E6E81A205D00228D830
:10792300B404D0022A02D0000E026E0A0E026403CF
:10793300D0010E0D6E1200000E0D6E1200000E200F
:107943006E000E1F6E1D501E10D8B41CD0010E21E8
:107953006E04D0D8901D361E36212A1EAEFAD7D813
:10796300901F3620361D501B5C1E501C58D8A00596
:10797300D01D501B5E1E501C5A1F80D8901E321DF6
:1079830032212EEDD71FC01BF020C01CF0120016B1
:10799300D01DC0F6FF1EC0F7FFF86A070EF7640399
:1079A300D00800F55005D0F6CFE9FFF7CFEAFFEF97
:1079B300502CEC3BF0C7EC3BF01D4A1E2A1DC0F6D1
:1079C300FF1EC0F7FFF86A070EF76403D00800F53F
:1079D3005005D0F6CFE9FFF7CFEAFFEF500009D803
:1079E300B41200D6D723D01750D8B402D0000E015A
:1079F300D0010E176E010E436E12001950D8B40257
:107A0300D0000E01D0010E196E010E436E12001844
:107A130050D8B402D0000E01D0010E186E010E43EF
:107A23006E1200010E1A6E010E436E12001A5001FF
:107A33000AD8B4D9D7030AD8B4E0D7010AD8B4E72F
:107A4300D7F0D7000E206E1CAE06D01B6C1C1ED8C0
:107A5300B01C2A010E206E1EAE04D01D6C1E1ED853
:107A6300B01E2A1D501E10D8B418D0010E1F6E046C
:107A7300D0D8901D361E361F2A1EAEFAD71D501BB6
:107A83005C1E501C58D8A004D01D501B5E1E501CF9
:107A93005AD8901E321D321F2EF1D72050D8B4046D
:107AA300D01B6C1C1ED8B01C2A1BC01BF01CC01C96
:107AB300F01200000E266E24AE06D0236C241ED8CE
:107AC300B0242A010E266E22AE06D0216C221ED8C7
:107AD300B0222A010E261A000E286E000E276E23EE
:107AE300502410D8B41CD0010E256E04D0D8902396
:107AF300362436252A24AEFAD7D8902736283623BB
:107B030050215C24502258D8A005D02350215E2454
:107B130050225A2780D89024322332252EEDD7269F
:107B230050D8B404D0276C281ED8B0282A27C021E7
:107B3300F028C022F012000F0E9516969496929696
:107B430090000E476E1E0E466E46504710D8A4FC9A
:107B5300D7020E3AEC3BF0000E476E010E466E461E
:107B6300504710D8A4FCD7280E3AEC3BF0000E4740
:107B73006E010E466E46504710D8A4FCD70C0E3A41
:107B8300EC3BF0000E476E010E466E46504710D890
:107B9300A4FCD7010E3AEC3BF0000E476E010E46F3
:107BA3006E46504710D8A4FCD7060E3AEC3BF000C3
:107BB3000E476E010E466E46504710D8A4FCD7C739
:107BC300EC3BF020EE35F010EE23F0060EDBCFE3B6
:107BD300FFE806FCE2230E1E6E000E1F6E400E2011
:107BE3006E41EC3CF020EC3BF0120029C021F02A5E
:107BF300C022F0000E246E3C0E236E5BEC3DF021A0
:107C030050316E29C01BF02AC01CF0000E1E6E3CC2
:107C13000E1D6E23EC3DF01B50326E000E246E0AD7
:107C23000E236E32C021F0226A5BEC3DF021C01BB3
:107C3300F022C01CF0000E1E6E0A0E1D6E23EC3DDA
:107C4300F01B50300F2C6E32C01BF01C6A000E1E4E
:107C53006E0A0E1D6E23EC3DF01B50300F2D6E3A55
:107C63000E2E6E000E246E0A0E236E31C021F022FA
:107C73006A5BEC3DF021C01BF022C01CF0000E1E1D
:107C83006E0A0E1D6E23EC3DF01B50300F2F6E312C
:107C9300C01BF01C6A000E1E6E0A0E1D6E23EC3D07
:107CA300F01B50300F306E2B5049EC3BF02C0E1D67
:107CB3006E000E1E6EC9EC3CF012000E50D8B4617B
:107CC300D00D50D8A431D05DD0030E426E010E43C7
:107CD3006E1704D8A40BD008BE54D0085003E10794
:107CE30004D8A04FD0FB0E0726FF0E17D01A50D88A
:107CF300B448D01A0646D0030E426E010E436E17E7
:107D030004D8A40DD008BE06D008503BE1640E078A
:107D13005CD8B037D0050E0726000E082232D003F8
:107D23000E1A602FD01A2A2DD04250000AD8B4CC94
:107D3300D7010AD8B4E0D725D080BA1200030E3E8B
:107D43006E1E0E156E120080BA08D01550D8A412FC
:107D530000F4EC3CF0010E3E6E1200000E3E6E127B
:107D63000080AA04D0020E3E6E1E0E156E80AA0677
:107D7300D01550D8A41200000E3E6E1200010E3E24
:107D83006E12003E50000AD8B4D7D7010AD8B4E81F
:107D9300D7030AD8B4EBD7010AD8A41200D4D74327
:107DA30004D8A4120026EC3BF073D0250E1D6E20E0
:107DB3000E1E6EC9EC3CF0070E2A6E260E296E4687
:107DC3000E2B6EF7EC3DF071D0440E1D6E200E1E8F
:107DD3006EC9EC3CF01704D8A406D0400E49EC3B26
:107DE300F0000E33EC3BF007C029F008C02AF04A3C
:107DF3000E2B6E5AEC3FF00750DBEC3BF0250E33B5
:107E0300EC3BF053D0330E1D6E200E1E6EC9EC3CBE
:107E1300F01904D8A40DD04E0E49EC3BF04C0E1DC6
:107E23006E200E1E6EC9EC3CF0010E5AEC3BF03D89
:107E3300D04D0E49EC3BF0480E1D6E200E1E6EC950
:107E4300EC3CF0000E5AEC3BF030D03E0E1D6E20A1
:107E53000E1E6EC9EC3CF01804D8A40DD04E0E498A
:107E6300EC3BF04C0E1D6E200E1E6EC9EC3CF00177
:107E73000E63EC3BF01AD04D0E49EC3BF0480E1D5F
:107E83006E200E1E6EC9EC3CF0000E63EC3BF00D51
:107E9300D01A50000AD8B489D7010AD8B495D703A9
:107EA3000AD8B4B0D7010AD8B4D0D7000E436E12A3
:107EB30000030E1E6EE80E1D6E29C01BF02AC01CA7
:107EC300F023EC3DF01BC033F01CC034F0000E1E59
:107ED3006E640E1D6E33C01BF034C01CF023EC3DEA
:107EE300F01BC02CF01CC02DF02CC01BF02DC01CAF
:107EF300F0000E1E6E0A0E1D6E23EC3DF01B50307B
:107F03000F2E6E030E1E6EE80E1D6E29C01BF02A87
:107F1300C01CF023EC3DF01BC033F01CC034F00058
:107F23000E1E6E640E1D6E33C01BF034C01CF02396
:107F3300EC3DF01BC021F01CC022F0000E246E0AA1
:107F43000E236E5BEC3DF02150300F2F6E030E1E9F
:107F53006EE80E1D6E29C01BF02AC01CF023EC3DF9
:107F6300F01BC021F01CC022F0000E246E640E230F
:107F73006E5BEC3DF02150300F306E29C021F02AAA
:107F8300C022F0030E246EE80E236E5BEC3DF0215D
:107F930050300F326E2B5049EC3BF02ABE0AD0E82A
:107FA3000E295C030E2A58D8A004D0325033EC3B80
:107FB300F003D0200E33EC3BF02ABE0AD02A500443
:107FC300E1640E295CD8A004D0305033EC3BF003BD
:107FD300D0200E33EC3BF02ABE0AD02A5004E10A2B
:107FE3000E295CD8A004D02F5033EC3BF003D020F3
:0D7FF3000E33EC3BF02E5033EC3BF012004F
:020000040020DA
:08000000FFFFFFFFFFFFFFFF00
:020000040030CA
:0E000000240E3F1EFF8181FF0FC00FE00F4056
:00000001FF
